S00D00004C616220342E73726563B4
S11300000C9434000C9451000C9451000C94510045
S11300100C94AA000C9451000C9451000C945100BF
S11300200C9451000C9451000C9451000C94510008
S11300300C9451000C9451000C9451000C945100F8
S11300400C9451000C9451000C9451000C945100E8
S11300500C9451000C9486000C9451000C945100A3
S11300600C9451000C94510011241FBECFEFD8E022
S1130070DEBFCDBF11E0A0E0B1E0EEE3F2E002C0EC
S113008005900D92A031B107D9F721E0A0E1B1E0CC
S113009001C01D92A531B207E1F70E94C4000C947F
S11300A01D010C9400008FEF87B997B1937F97B926
S11300B098B19C6098B98AB91BB884B91092C100F0
S11300C0E8E6F0E0808182608083ECE6F0E0808105
S11300D08C6080831092100178940895ECE7F0E02E
S11300E010828081806480838081806280838081AB
S11300F086608083EAE7F0E01082808188688083EC
S113010080818760808310927E0008951F920F92F1
S11301100FB60F9211248F93EF93FF93EAE7F0E069
S113012080818F7E808380917900809311018091FA
S113013011018F70809313018091110182958F704A
S113014080931201FF91EF918F910F900FBE0F904A
S11301501F9018951F920F920FB60F9211248F9330
S1130160329905C0809114018F5F809314013399F3
S113017005C0809114018150809314018F910F90D8
S11301800FBE0F901F901895F8940E9453000E9480
S11301906E007894EAE7F0E0808180648083809147
S11301A0140185B988B1909114019295969596950C
S11301B093708C7F892B88B99091140180911101DF
S11301C0981720F480E88093100108C090911401DE
S11301D080911101891710F41092100188B1806187
S11301E088B988B18F7D88B9E0911301F0E0E050BF
S11301F0FF4F8081909110018F77892B8BB98FE706
S11302009EE30197F1F700C0000088B1806288B9CD
S113021088B18F7E88B9E0911201F0E0E050FF4F81
S11302208081909110018F77892B8BB98FE79EE3A2
S11102300197F1F700C00000ADCFF894FFCFA6
S113023E4079243019120278001008034621060E64
S9030000FC
