S00D00004C616220342E73726563B4
S11300000C9434000C9446000C9446000C94460066
S11300100C9457000C9446000C9446000C94460033
S11300200C9446000C9446000C9446000C94460034
S11300300C9446000C9446000C9446000C94460024
S11300400C9446000C9446000C9446000C94460014
S11300500C9446000C9446000C9446000C94460004
S11300600C9446000C94460011241FBECFEFD8E038
S1130070DEBFCDBF21E0A0E0B1E001C01D92A13000
S1130080B207E1F70E9471000C9483000C94000005
S11300908FEF87B997B1937F97B998B19C6098B95E
S11300A08AB91BB884B91092C100789408951F923C
S11300B00F920FB60F9211248F93329905C080913D
S11300C000018F5F80930001359905C08091000184
S11300D08150809300018F910F900FBE0F901F905D
S11300E01895F8940E94480078948091000185B98D
S11300F088B19091000192959695969593708C7F16
S10D0100892B88B9F2CFF894FFCFE1
S9030000FC
