S00D00004C616220342E73726563B4
S11300000C9434000C9451000C9451000C94510045
S11300100C94A8000C9451000C9451000C945100C1
S11300200C9451000C9451000C9451000C94510008
S11300300C9451000C9451000C9451000C945100F8
S11300400C9451000C9451000C9451000C945100E8
S11300500C9451000C9484000C9451000C945100A5
S11300600C9451000C94510011241FBECFEFD8E022
S1130070DEBFCDBF11E0A0E0B1E0E6E0F2E002C0F7
S113008005900D92A031B107D9F721E0A0E1B1E0CC
S113009001C01D92A431B207E1F70E94C2000C9482
S11300A001010C9400008FEF87B997B1937F97B942
S11300B098B19C6098B98AB91BB884B91092C100F0
S11300C0E8E6F0E0808182608083ECE6F0E0808105
S11300D08C60808378940895ECE7F0E0108280814E
S11300E08064808380818062808380818660808355
S11300F0EAE7F0E0108280818868808380818760ED
S1130100808310927E0008951F920F920FB60F9273
S113011011248F93EF93FF93EAE7F0E080818F7EC1
S113012080838091790080931001809110018F70F9
S1130130809312018091100182958F708093110138
S1130140FF91EF918F910F900FBE0F901F90189514
S11301501F920F920FB60F9211248F93329905C0FC
S1130160809113018F5F80931301339905C08091AF
S113017013018150809313018F910F900FBE0F9044
S11301801F901895F8940E9453000E946C00789474
S1130190EAE7F0E08081806480838091130185B96F
S11301A088B19091130192959695969593708C7F52
S11301B0892B88B988B1806188B988B18F7D88B965
S11301C0E0911201F0E0E050FF4F80818BB98FE79E
S11301D09EE30197F1F700C0000088B1806288B9FE
S11301E088B18F7E88B9E0911101F0E0E050FF4FB3
S11301F080818BB98FE79EE30197F1F700C000007F
S1090200C7CFF894FFCF04
S11302064079243019120278001008034621060E9C
S9030000FC
